:020000040800F2
:1000000038840020450100088977000889640008C9
:100010009171000825430008F99C000800000000C9
:10002000000000000000000000000000E58E000855
:10003000A1450008000000000183000809910008A4
:100040005F0100085F0100085F0100085F01000810
:100050005F0100085F010008014900085F01000816
:100060005F0100085F0100085F0100085F010008F0
:100070005F0100085F0100085F0100085F010008E0
:100080005F0100085F0100085F0100085F010008D0
:100090001D9A00085F0100085F0100085F01000869
:1000A0005F0100085F0100085F0100085F010008B0
:1000B0005F0100085F0100085F0100085F010008A0
:1000C0005F0100085F0100085F0100085F01000890
:1000D0005F010008059900085D990008BD990008B6
:1000E0005F0100085F0100085F0100085F01000870
:1000F0005F0100085F0100085F0100085F01000860
:100100005F0100085F0100085F0100085F0100084F
:1001100045980008A59800085F0100085F010008E5
:100120005F0100085F0100085F0100085F0100082F
:10013000DFF80CD000F04EFB00480047F5AC00089B
:10014000388400200648804706480047FEE7FEE75F
:10015000FEE7FEE7FEE7FEE7FEE7FEE7FEE7FEE777
:10016000159100083101000840EA01039B0703D004
:1001700009E008C9121F08C0042AFAD203E011F8E6
:10018000013B00F8013B521EF9D27047D2B201E0A8
:1001900000F8012B491EFBD270470022F6E710B58C
:1001A00013460A4604461946FFF7F0FF204610BDE5
:1001B00030B505462A460B4612F8010B13F8014BE1
:1001C00008B1A042F8D01CB1002802D06D1CF1E7A4
:1001D000284630BD421C10F8011B0029FBD1801AB3
:1001E000704770B5064609F09DFD046805460A2271
:1001F0000021304600F028FA2C6070BD2DE9FE4F3A
:10020000804681EA0300C00F0C46009021F00041B7
:1002100023F00045B8EB0200A94105D24046214633
:1002200090461C460B46024623F00040104347D040
:10023000270DC7F30A00C3F30A510290401A019038
:1002400040286BDAC3F3130040F4801B00989246F9
:1002500020B10023D2EB030A63EB0B0B0198594644
:10026000C0F14002504600F0BEF906460D46504629
:100270005946019A00F0D6F910EB080061410024BC
:1002800087EA115284EAE7731A4340D0009A62B3B6
:10029000019A012A4FEA075215DC001B61EB0201AB
:1002A0004FF0004202EA0752CDE90042001C41F53E
:1002B000801132462B4600F00EFA03B0BDE8F08FF5
:1002C00040462146F9E7001B61EB0201001C41F5A5
:1002D000801300185B412018A2F5001747EB0301BB
:1002E00040EAD570B6196D4111E06D084FEA360647
:1002F00045EAC0754FEA0752001B61EB0201001C82
:1003000041F5801149084FEA300000195141324649
:100310002B4603B0BDE8F04F00F0CEB900980122A3
:1003200040000023D0EB020263EBE073009821460B
:100330004FEAE074B8EB000061EB0401E9E783F0F9
:1003400000435BE781F0004158E72DE9FE4F81EA69
:10035000030404F0004421F0004100944FF0000B2E
:1003600023F0004350EA01045ED052EA03045BD05C
:10037000C3F30A54C1F30A552C44A4F2F334019494
:10038000A0FB0254C1F3130141F48011C3F3130322
:1003900043F4801301FB024400FB034E840A970AD6
:1003A00044EA815447EA8357A4FB076802958D0A03
:1003B00005FB07854FEA932C04FB0C542705029D8F
:1003C0004FEA065847EA1637B5EB08056EEB070CFF
:1003D000870E920E47EA811742EA8312A7FB0201B9
:1003E000B6EB0B0164EB00042B0D43EA0C335E18F3
:1003F00044EB1C50DA465146E7FB0201C5F31304F7
:100400004FEA0B3343EA14534FEA0432019C43EAA8
:100410000603A4F10C040294009CCDE900B400F0A2
:100420005AF903B0BDE8F08F00200146F9E72DE945
:10043000F04D81EA030404F0004B21F0004514461E
:100440004FF0000A23F0004150EA050220D054EAA0
:1004500001021DD0C5F30A570246C5F31303C1F3C9
:100460001300C1F30A5640F4801543F48013A7EB40
:100470000608101BD64608F2FD3873EB050002D3C0
:1004800008F1010801E092185B41B8F1000F03DAAE
:1004900000200146BDE8F08D00204FF48011064693
:1004A00084460EE0171B73EB050705D3121B63EBA5
:1004B000050306434CEA010C49084FEA3000921844
:1004C0005B4150EA0107EDD152EA030012D082EA03
:1004D000040083EA0501084305D0101BAB4106D296
:1004E0000122002306E000224FF0004302E06FF0FB
:1004F000010253101AEB06004CEB085110EB0A00F6
:1005000041EB0B01BDE8F04D00F0D6B80EB540F25E
:10051000334102910021CDE900110A460B4600F05B
:10052000DAF803B000BD000030B5041E71F100041C
:1005300004DB4FF00044404264EB0101141E73F1F0
:10054000000405DB1C464FF00043524263EB0403FA
:100550008B4208BF824230BD30B50B4601460020B9
:100560002022012409E021FA02F59D4205D303FA75
:1005700002F5491B04FA02F52844151EA2F10102F6
:10058000F1DC30BD2DE9F05F0546002092469B4628
:1005900088460646814640241BE028464146474699
:1005A000224600F02FF853465A46C01A914110D304
:1005B00011461846224600F016F82D1A67EB01087E
:1005C0004F4622460120002100F00DF817EB0009EC
:1005D0004E41201EA4F10104DFDC484631462A4684
:1005E0004346BDE8F09F202A04DB203A00FA02F1DE
:1005F000002070479140C2F1200320FA03F3194311
:1006000090407047202A04DB203A21FA02F00021B2
:10061000704721FA02F3D040C2F120029140084312
:1006200019467047202A06DBCB17203A41FA02F020
:1006300043EAE07306E041FA02F3D040C2F120023F
:1006400091400843194670472DE9F04791460F46FF
:1006500080460446002614F8015B2DB100F0CCF86A
:100660000068405DC007F6D12B2D02D02D2D18D08B
:10067000641E4A463946204600F0C2F827B1396860
:10068000A14201D1C7F8008071054FF002040BD5DB
:100690004042002803DD09F045FB0460A007BDE8E7
:1006A000F08746F48066E4E70028F8DA09F03AFBC0
:1006B00004606FF00040F2E710B5141E73F10004FF
:1006C00008DA401C41F1000192185B411A4301D144
:1006D00020F0010010BD2DE9F04D92469B4611B16E
:1006E000B1FA81F202E0B0FA80F220329046FFF7D0
:1006F0007AFF04460F4640EA0A0041EA0B015346DE
:100700005A46084313D0114653EA010019D0C8F1E4
:1007100040025046FFF776FF05460E4650465946C2
:100720004246FFF760FF084305D0012004E0204661
:100730003946BDE8F08D0020054346EAE0762C43BB
:1007400037430A986305E40AA0EB08000022FD0A7B
:1007500044EA47540A3002D500200146E9E7010582
:1007600010196941DDE9084500196941BDE8F04DFE
:10077000A2E7C1F30A52C1F3130140F2FF3341F47F
:1007800080119A4202DA00200146704740F233435A
:100790009A42A2F2334202DC5242FFF733BFFFF724
:1007A00022BF000030B5041E71F1000404DB4FF0DD
:1007B0000044404264EB0101141E73F1000405DBA8
:1007C0001C464FF00043524263EB0403994208BFBA
:1007D000904230BD064C074D06E0E06840F0010352
:1007E00094E8070098471034AC42F6D3FFF7A4FC16
:1007F0005CF400087CF4000800487047B8E7000883
:100800002DE9F05F82460078002715468B460AF1F5
:100810000104B946302801D09DB113E014F8010B52
:100820000127782803D0582801D045B10AE00DB13E
:10083000102D07D10027102514F8010B02E0082520
:1008400000E00A250026B0460EE005FB080005FB87
:1008500006F1012701EB10461FFA80F8B6F5803F3C
:1008600000D3B94614F8010B294600F018F8002807
:10087000EBDABBF1000F05D00FB1641E00E0544667
:10088000CBF80040B9F1000F06D009F04BFA022175
:100890000160C81EBDE8F09F48EA0640FAE73A2822
:1008A00000D2303820F02002412A01D3A2F13700D3
:1008B000884201D34FF0FF30704770B58C1810F8A4
:1008C000015B15F0070301D110F8013B2A1106D195
:1008D00010F8012B03E010F8016B01F8016B5B1EAF
:1008E000F9D12B0705D40023521E0DD401F8013B8A
:1008F000FAE710F8013BCB1A921C03E013F8015BF6
:1009000001F8015B521EF9D5A142D8D3002070BD79
:1009100010B5002400BF20E0C4EBC40101EB44216A
:10092000144A02EB810040F61C01FFF736FCC4EBD1
:10093000C40101EB44210F4B03EB810204EB4401A2
:100940004FF4806303EB812040F61C0103F08AFF23
:10095000052005F0C5FC601CC4B2082CDCDB054892
:100960000068401C20B944F2E0010248FFF715FC82
:1009700010BD00005C1500202DE9F0438BB000266F
:1009800000200A900990152008F0FEFC002873D082
:10099000152008F0D5FCF948D0F85002002862D0A4
:1009A000F7480088401CF649088008460088B0F5E2
:1009B000616F58DB202101A8FFF7EFFBF1480088A9
:1009C000C0EBC00101EB4020EF4901EB8007202183
:1009D00001A8FFF7E2FBEB49098801EB41014FF465
:1009E000806202EB8121E94A1288881801AA20213D
:1009F00003F038FFE5480088074400240FE001A811
:100A0000005D395D884208D0022005F069FC3A4655
:100A10002021480103F04CFF03E0601C84B2202C2D
:100A2000EDD300BFD94800882030D8490880084657
:100A3000008840F61C01884214D30020D349088066
:100A4000D0480088401CCF490880CC48D0F85002DC
:100A50000988884206D80020CC490880C949088006
:100A6000C749088000BF00241FE202274FF000089A
:100A70004FF0000900BF3DE01FE24FF000082EE0FC
:100A800000200790089007AA4146384604F052FB20
:100A900008B304EB4402BE4901EB420007A9FFF78B
:100AA00087FBC0B100200A900990032F08D1B8F14C
:100AB000040F05D10AAA4146384604F0BDFA07E002
:100AC00009AA4146384604F0B7FABDF824000A9056
:100AD0004FF0010907E008F1010000F0FF08AD4800
:100AE000C05D4045CCDC00BFB9F1000F00D003E091
:100AF000781CC7B2052FC0DB00BFA74800EB04106D
:100B000000683C2814D3C4EBC40101EB44219E4A85
:100B100002EB81003B2108F0B5F9C4EBC40101EB05
:100B20004421994A02EB81010A98C1F8EC0012E0D5
:100B3000994800EB041000683C21B0FBF1F201FB86
:100B40001200C4EBC40101EB44218F4A02EB810186
:100B50000A9A41F82020904800EB04100068401CDD
:100B60008D4901EB041108608B4800EB041000680C
:100B700000287DD0884800EB041000683C21B0FBC1
:100B8000F1F201FB1200002872D1002600250BE0D3
:100B9000C4EBC40000EB44207B4901EB800050F81B
:100BA00025000644681C85B23C2DF1DB7A4800EB39
:100BB000041040683C2818D3C4EBC40101EB442165
:100BC000714A02EB810101F1F0003B2108F05AF972
:100BD0003C20B6FBF0F1C4EBC40000EB44206A4AB1
:100BE00002EB8000C0F8DC1115E03C20B6FBF0F110
:100BF000694800EB041040683C22B0FBF2F302FBB2
:100C00001302C4EBC40000EB44205F4B03EB8000F5
:100C1000F03040F82210604800EB04104068401C9F
:100C20005D4901EB041148605B4800EB041040682B
:100C300000289ED0584800EB041040683C21B0FBCF
:100C4000F1F201FB120000289ED1002600250CE0E5
:100C5000C4EBC40000EB44204B4901EB8000F030B2
:100C600050F825000644681C85B23C2DF0DB00E0FE
:100C7000C2E0494800EB04108068182818D3C4EB80
:100C8000C40101EB4421404A02EB810101F5F070FF
:100C9000172108F0F7F83C20B6FBF0F1C4EBC400D4
:100CA00000EB4420384A02EB8000C0F83C1216E00A
:100CB0003C20B6FBF0F1384800EB041080681822A5
:100CC000B0FBF2F302FB1302C4EBC40000EB4420C0
:100CD0002D4B03EB800000F5F07040F822102E48F9
:100CE00000EB04108068401C2B4901EB0411886064
:100CF000294800EB0410806800287DD0264800EBCE
:100D0000041080681821B0FBF1F201FB12000028EA
:100D100072D1002600250DE0C4EBC40000EB442096
:100D2000194901EB800000F5F07050F825000644E9
:100D3000681C85B2182DEFDB174800EB0410808982
:100D4000B0F5B67F2ADDC4EBC40101EB44210E4AA5
:100D500002EB810101F510704FF4B67108F092F8C2
:100D60001820B6FBF0F1C4EBC40000EB4420064AA7
:100D700002EB8000C0F8F01728E0000050120020BD
:100D80005A0200205E0200205C1500205C02002058
:100D9000A414002088D60008DC1400201820B6FB1C
:100DA000F0F1474800EB0410808940F26D1290FB8F
:100DB000F2F302FB1302C4EBC40000EB4420414BEE
:100DC00003EB800000F5107040F822103C4800EB67
:100DD00004108089401C3A4901EB0411888138488D
:100DE00000EB0410808900285DDD354800EB04101D
:100DF000808940F26D1100E038E090FBF1F201FBD8
:100E0000120098BB002600250DE0C4EBC40000EBE7
:100E100044202C4901EB800000F5107050F82500AB
:100E20000644681C85B2B5F5B67FEEDD244800EBBC
:100E30000410C0890A281ADBC4EBC40101EB442169
:100E4000204A02EB810101F2F470092108F01AF83E
:100E500040F26D10B6FBF0F1C4EBC40000EB44208F
:100E6000184A02EB8000C0F8181813E01BE040F2AB
:100E70006D10B6FBF0F1C4EBC40000EB4420114A46
:100E800002EB800000F2F4700D4A02EB0412D289EA
:100E900040F822100A4800EB0410C089401C0849A1
:100EA00001EB0411C881601C84B2082C05DA0648E5
:100EB000D0F85002A0423FF6D8AD0BB0BDE8F083A9
:100EC000DC1400205C150020501200200120014994
:100ED000087070474700002010B502460B460648D0
:100EE0000088504300EB4004C4EB8010000B0A2440
:100EF000B0FBF4F188B210BD3000002002460B4672
:100F00004FF49600B0FBF2F000F12D0188B270476B
:100F1000704700002DE9F043002500260027A84671
:100F2000A94600240AE0184830F824000544164871
:100F300000EB840040880644601CC4B21E2CF2DB27
:100F40001E20B5FBF0F5B6FBF0F61E213046FFF78C
:100F5000D5FF0E4908801E212846FFF7BDFF0C492A
:100F600008800A48008832380A490988884209DC22
:100F70000020094908700948407820F020002030FE
:100F800006494870BDE8F0837C0600203000002050
:100F90003200002044000020EE0200203A0200202F
:100FA0002DE9F04704460D462846FFF713F9C6B26F
:100FB000A019222100F052FBC7B2202F00DB20270E
:100FC00020211448FFF7E9F8A1193A461148FFF724
:100FD000CBF81148FFF7FEF880462846FFF7FAF8ED
:100FE000C0F180090B48FFF7F5F8A9EB0000801E5F
:100FF00080450BD20848FFF7EDF8074900EB0108E0
:10100000044B2A4605A1404608F078FE03F04AFC4E
:10101000BDE8F087B8120020020B0020257325736D
:10102000222C00002DE9F04704460D462846FFF724
:10103000D1F8C6B2A019222100F010FBC7B2102FC0
:1010400000DB102716480021016341638163C163FF
:10105000A1193A463030FFF787F81248FFF7BAF87F
:1010600080462846FFF7B6F8C0F180090C483030BA
:10107000FFF7B0F8A9EB0000801E80450CD20948AC
:10108000FFF7A8F8074900EB0108054B30332A4663
:1010900005A1404608F032FE03F004FCBDE8F087ED
:1010A000B8120020020B002025732573222C0000AB
:1010B0002DE9F04704460D462846FFF78BF8C6B2E7
:1010C000A019222100F0CAFAC7B2102F00DB1027A6
:1010D00016480021016241628162C162A1193A464B
:1010E0002030FFF741F81248FFF774F88046284691
:1010F000FFF770F8C0F180090C482030FFF76AF85C
:10110000A9EB0000801E80450CD20948FFF762F869
:10111000074900EB0108054B20332A4605A140464C
:1011200008F0ECFD03F0BEFBBDE8F087B81200202C
:10113000020B002025732573222C00002DE9F047B7
:1011400004460D462846FFF745F8C6B2A0192221ED
:1011500000F084FAC7B2402F00DB4027402114483A
:10116000FFF71BF8A1193A461148FEF7FDFF114899
:10117000FFF730F880462846FFF72CF8C0F18009C9
:101180000B48FFF727F8A9EB0000801E80450BD223
:101190000848FFF71FF8074900EB0108044B2A46EF
:1011A00005A1404608F0AAFD03F07CFBBDE8F087EE
:1011B000F8120020020B002025732573222C00005A
:1011C00010B590B0044640216846FEF7E6FF402186
:1011D0006846FEF7E2FF012204A1684608F08EFD92
:1011E000684602F01FFA10B010BD000041542B43B6
:1011F000474143543D312C25640D0A0010B590B091
:10120000044640216846FEF7C8FF40216846FEF7C5
:10121000C4FF054A05A1684608F070FD684602F063
:1012200001FA10B010BD0000B812002041542B4349
:101230004744434F4E543D312C224950222C222505
:1012400073220D0A00000000F0B585B0054628465F
:10125000FEF7C0FF86B2002004901A200390012000
:10126000029005F0F1FF401E132804D014280BD083
:10127000162808D146E02E215B4800F03FFA0121F4
:1012800003A800F03BFAACE002F05AFB8220049085
:10129000012104A800F032FA5448FEF79BFFC0B2C7
:1012A00001909DF80400401D00900121684600F067
:1012B00025FA00200490012104A800F01FFA012063
:1012C0000490012104A800F019FA002004900121E3
:1012D00004A800F013FA012101A800F00FFA9DF80C
:1012E0000410424800F00AFA00200490012104A8EA
:1012F00000F004FA0A2004F0F3FF012103A800F033
:10130000FDF96EE005F09AFF072814D2DFE800F03F
:1013100004070A0B0C0D100003F046FC0BE003F071
:1013200043FC08E007E006E005E003F08BFF02E085
:1013300003F00EFB00BF00BF03F0CEFE07463020D7
:101340000490012104A800F0D9F92948FEF742FFD2
:10135000C0B201903846FEF73DFF84B29DF804000C
:101360002044801C80B20090BDF800007F2819DD69
:10137000BDF80000C11700EB5161C1F3C711029124
:101380009DF80800401EBDF80010A1EBC01080B20F
:1013900000900121684600F0B1F9012102A800F097
:1013A000ADF903E00121684600F0A8F9002004909F
:1013B000012104A800F0A2F9012101A800F09EF982
:1013C0009DF804100A4800F099F90A2004F088FFFB
:1013D0002146384600F092F9012103A800F08EF969
:1013E00000BF00BF05B0F0BD750000202A0C002032
:1013F000EA0B00200121034A11700021024A1170FA
:1014000070470000550000205400002010B5A2B025
:1014100004461648FEF7DEFE082821D91348463058
:10142000FEF7D8FE88B111484E30FEF7D3FE60B10A
:101430000E494E31A1F10800831F0C4ACDE900018D
:101440000BA102A808F05AFC06E0084B4033074AFB
:1014500011A102A808F052FC02A802F0E3F803E090
:101460001548006802F0DEF822B010BDF812002026
:1014700041542B43495053544152543D22544350FC
:10148000222C222573222C222573222C2225732222
:101490002C222573220D0A0041542B4349505354EA
:1014A0004152543D22544350222C222573222C2297
:1014B0002573220D0A0000007000002010B590B0C6
:1014C000044640216846FEF768FE054A05A16846C5
:1014D00008F014FC684602F0A5F810B010BD00003A
:1014E000F40A002041542B434D47523D25730D0A09
:1014F0000000000070B505461A48FEF76BFE07288D
:101500000AD81848FEF766FE16490844441E16A17C
:10151000204608F0F3FB0EE01248FEF75BFE7D2844
:1015200009D21048FEF756FE0E490844441E11A188
:10153000204608F0E3FB0B4802F074F8022004F0A8
:10154000CFFE01210C4800F0D9F880210548FEF7B4
:1015500024FE044909A002680A6082888A80807992
:10156000887170BD020B00206572726F727D0D0A6A
:10157000000000007D0D0A00650000207265706C9F
:10158000793A7B0010B5044606A002F04BF80848F3
:1015900002F048F807A002F045F814210448FEF7CD
:1015A000FCFD10BD41542B434D47533D220000002C
:1015B000820B0020220D0A0070B5054600240A2087
:1015C00004F08EFE70BD000010B5A2B004461448B1
:1015D000FEF700FEE8B112482030FEF7FBFD78B1BF
:1015E0000F483030FEF7F6FD50B10D483030A0F115
:1015F00010030B4A0BA1009002A808F07FFB04E047
:10160000074A0FA102A808F079FB02A802F00AF825
:1016100003E01148006802F005F822B010BD000098
:10162000B812002041542B435354543D22257322B9
:101630002C222573222C222573220D0A0000000083
:1016400041542B435354543D222573222C22222CE7
:1016500022220D0A000000006C00002010B5024696
:101660000B460020002100BF03E0441CA0B24C1C2C
:10167000A1B2545C9C4202D0545C002CF5D110BD48
:1016800010B5002013490870134908704FF48061A9
:101690001248FEF782FD00201149086011490860D8
:1016A00080211148FEF779FD0F4810A10A680260F9
:1016B0008A8882808979817114210E48FEF76DFD38
:1016C00006480D4908600020C8804FF4806088807B
:1016D00010BD00005400002055000020F40600203A
:1016E000600000205C000020020B00207265706C1E
:1016F000793A7B00820B00200800002070B5044678
:101700000D462946204608F007FA042103A005F0FB
:101710002FFD2946204605F02BFD70BD4D43553A5F
:10172000000000002DE9F04704460D462846FEF76C
:1017300051FDC6B2A0192221FFF790FFC7B2082FB2
:1017400000DB08271448002101604160A1193A46D6
:10175000FEF70AFD1148FEF73DFD80462846FEF7DC
:1017600039FDC0F180090C48FEF734FDA9EB0000FB
:10177000801E80450BD20948FEF72CFD074900EB7F
:101780000108054B2A4606A1404608F0B7FA03F0C7
:1017900089F8BDE8F087000050130020020B0020FC
:1017A00025732573222C000070B5044604EB8400D9
:1017B000144901EB80051448047000201349087097
:1017C0001148007800B970BD4FF480611048FEF7F1
:1017D000E4FC00200F49C8804FF4806088800C48EA
:1017E000086000200C4908600C490860E86830B1C6
:1017F000286820B1312C02DAE9686868884700BFA0
:10180000E1E7000024D0000854000020550000202B
:10181000F406002008000020600000205C0000208A
:1018200010B590B0044640216846FEF7B6FC402152
:101830006846FEF7B2FC0B480078012806DB0AA3D5
:1018400001220CA1684608F059FA05E00FA3002216
:1018500008A1684608F052FA684601F0E3FE10B0AD
:1018600010BD0000A4000020746573746D71747461
:101870003200000041542B434D51545441434351D5
:101880003D25642C222573220D0A000074657374B3
:101890006D7174743100000010B5A4B0044680214D
:1018A00004A8FEF77AFC802104A8FEF776FC234802
:1018B000007801281DDB2248FEF78CFC50B9204837
:1018C000801FA0F1400301221EA1009004A808F08F
:1018D00015FA2DE01A490831194A901FA0F140036A
:1018E000CDE901210090012221A104A808F006FA07
:1018F0001EE01348A830FEF76DFC50B91048A23026
:10190000A0F1400300220FA1009004A808F0F6F90E
:101910000EE00B49B031A1F10802901FA0F1400385
:10192000CDE901210090002211A104A808F0E6F9F8
:1019300004A801F077FE24B010BD0000A400002030
:101940003E13002041542B434D515454434F4E4EAF
:101950004543543D25642C227463703A2F2F257320
:101960003A2573222C373230302C312C2C0D0A00C2
:1019700041542B434D515454434F4E4E4543543DD7
:1019800025642C227463703A2F2F25733A25732215
:101990002C373230302C312C222573222C22257307
:1019A000220D0A0070B5054603F096FB044620465A
:1019B00001F038FE01A001F035FE70BD0D0A0000F7
:1019C00070B5A0B0064680216846FEF7E6FB03F03E
:1019D00083FB044680216846FEF7DFFB1048007851
:1019E00001280ADB2046FEF7F5FB05462B460122BF
:1019F0000CA1684608F082F909E02046FEF7EAFBF0
:101A000005462B46002207A1684608F077F968468C
:101A100001F008FE4FF47A7004F062FC20B070BD53
:101A2000A400002041542B434D5154545041594C73
:101A30004F41443D25642C25640D0A002DE9F047F3
:101A400004460D462846FEF7C5FBC6B2A019222162
:101A5000FFF704FEC7B20A2F00DB0A271448002153
:101A6000016041600181A1193A46FEF77DFB1148F2
:101A7000FEF7B0FB80462846FEF7ACFBC0F18009BC
:101A80000B48FEF7A7FBA9EB0000801E80450BD298
:101A90000848FEF79FFB074900EB0108044B2A4664
:101AA00005A1404608F02AF902F0FCFEBDE8F087E7
:101AB00046130020020B002025732573222C000002
:101AC00030B5A1B00546802101A8FEF766FB802154
:101AD00001A8FEF762FB03F0FFFA0446094800780C
:101AE000012805DB502208A101A808F007F904E04D
:101AF00050220BA101A808F001F901A801F092FD04
:101B000021B030BDA400002041542B434D5154540A
:101B10005055423D312C312C25640D0A0000000047
:101B200041542B434D5154545055423D302C312C8F
:101B300025640D0A0000000010B50446034801F0BA
:101B400071FD03A001F06EFD10BD00002A0C002005
:101B50000D0A000030B5A1B00546802101A8FEF7AE
:101B60001CFB802101A8FEF718FB0F480078012814
:101B70000ADB0E48FEF72EFB0446234601220CA189
:101B800001A808F0BBF809E00848FEF723FB04466B
:101B90002346002206A101A808F0B0F801A801F030
:101BA00041FD21B030BD0000A40000202A0C00201F
:101BB00041542B434D5154545355423D25642C25DB
:101BC000642C310D0A00000010B50446034801F0F2
:101BD00029FD03A001F026FD10BD00002A0C002005
:101BE0000D0A000030B5A1B00546802101A8FEF71E
:101BF000D4FA802101A8FEF7D0FA0F480078012816
:101C00000ADB0E48FEF7E6FA0446234601220CA141
:101C100001A808F073F809E00848FEF7DBFA04466B
:101C20002346002206A101A808F068F801A801F0E7
:101C3000F9FC21B030BD0000A40000202A0C0020D7
:101C400041542B434D515454535542544F504943E2
:101C50003D25642C25642C310D0A000010B5044686
:101C6000034801F0DFFC03A001F0DCFC10BD000024
:101C7000EA0B00200D0A000030B5A1B00546802116
:101C800001A8FEF78AFA802101A8FEF786FA0F481C
:101C9000007801280ADB0E48FEF79CFA044623462A
:101CA00001220CA101A808F029F809E00848FEF774
:101CB00091FA04462346002206A101A808F01EF866
:101CC00001A801F0AFFC21B030BD0000A40000204D
:101CD000EA0B002041542B434D515454544F50496A
:101CE000433D25642C25640D0A00000010B5044610
:101CF000034801F097FC03A001F094FC10BD000024
:101D00002A0C00200D0A000030B5A1B00546802144
:101D100001A8FEF742FA802101A8FEF73EFA0F481B
:101D2000007801280ADB0E48FEF754FA04462346E1
:101D300001220CA101A807F0E1FF09E00848FEF725
:101D400049FA04462346002206A101A807F0D6FF5F
:101D500001A801F067FC21B030BD0000A400002004
:101D60002A0C002041542B434D515454554E535589
:101D7000423D25642C25642C300D0A002DE9F047E6
:101D800004460D462846FEF725FAC6B2A0192221C0
:101D9000FFF764FCC7B2082F00DB082714480021B6
:101DA00001604160A1193A46FEF7DEF91148FEF7DD
:101DB00011FA80462846FEF70DFAC0F180090C485A
:101DC000FEF708FAA9EB0000801E80450BD20948F7
:101DD000FEF700FA074900EB0108054B2A4606A169
:101DE000404607F08BFF02F05DFDBDE8F087000084
:101DF0003E130020020B002025732573222C0000C7
:101E00002DE9F34FB7B0002036908046359000247E
:101E100034903390002537981290A146A2460020B6
:101E200011903898312805DA389800EB8000FD4988
:101E300001EB8009FCA11298FEF7BAF970B1FC48D9
:101E4000007824280ADB00220121FA4808F074FEF9
:101E50004FF4167004F044FA05F0FCF9F6A112985C
:101E6000FEF7A6F948B1F2480078242805DB0220E5
:101E7000FFF79AFC2620EE490870F3A11298FEF7AE
:101E800097F928B10720FFF78FFC0720E849087071
:101E9000F0A11298FEF78CF920B1EEA11298FEF78E
:101EA00087F90446EDA11298FEF782F9002837D091
:101EB000ECA11298FEF77CF948B9ED48007818B10A
:101EC0003120DB49087002E02420D9490870E9A1DB
:101ED0001298FEF76DF9E1A11298FEF769F9044630
:101EE000A41D002609E02C212046FFF7B7FB804601
:101EF00008F101000444701CC6B2052EF3DB2C214E
:101F00002046FFF7ABFB8046B8F1180F08DA18211E
:101F1000DA48FEF742F942462146D848FEF724F94E
:101F2000D7A11298FEF744F958B1D7A11298FEF73D
:101F30003FF918B1012003F05FFF02E0002003F039
:101F40005BFFD3A11298FEF733F928B11120D249D3
:101F500008700120D1490870C9A11298FEF728F92C
:101F600020B9B1A11298FEF723F978B1CA480078D8
:101F700007280BD1C4A11298FEF71AF918B1012055
:101F800003F03AFF02E0002003F036FF002617E0DE
:101F900006EB4600C24901EB800ADAF8040068B19A
:101FA000DAF8080050B1DAF80410129801F040FD98
:101FB00004461CB12046DAE901129047701CC6B2F3
:101FC0000C2EE5D3B7A11298FEF7F2F890B1B5A1A7
:101FD0001298FEF7EDF804460E21B448FEF7DDF83E
:101FE0002C21E01DFFF73AFB80464246E11DAF4839
:101FF000FEF7BAF8AEA11298FEF7DAF8AEA1129881
:10200000FEF7D6F8AEA11298FEF7D2F850B12C2107
:10201000E01DFFF723FB80460020AB49087001203C
:10202000AA490870AAA11298FEF7C2F80446ACB3F8
:102030002C212046FFF712FB804608F101000444E2
:102040002C212046FFF70AFB804600200D900E90C1
:102050000F901090B8F1100F04DC424621460DA8F5
:10206000FEF782F80DA803F059FB08F101000444C3
:102070002C212046FFF7F2FA804600200D900E90AA
:102080000F901090B8F1100F04DC424621460DA8C5
:10209000FEF76AF80DA803F029FB00BF8EA1129885
:1020A000FEF786F80446D4B100200F9010902C2142
:1020B000A01DFFF7D3FA8046B8F1080F01DD4FF0FD
:1020C00008084246A11D0FA8FEF74EF80FA8FEF71C
:1020D00088F81FFA80FB584603F0ECFA00BF8049ED
:1020E000129801F0A5FC3490349800287DD07D49E9
:1020F0003498FEF75DF80028F8D07BA13498FEF7FD
:1021000057F818B100207D49087002E001207B4992
:1021100008707BA13498FEF74BF80446002C65D07C
:10212000142004F0DDF8002479A13498FEF740F87B
:102130000446002C75D06CA13498FEF739F818B11C
:1021400000206E49087002E001206C490870E41C10
:102150002C212046FFF782FAC5B2402D00DB402536
:1021600040216C48FEF719F82A4621466948FDF7D8
:10217000FBFF6019441C2C212046FFF76FFAC5B203
:10218000062D00DB06256348403000210160818078
:102190002A462146FDF7E8FF6019441C2C21204601
:1021A000FFF75CFAC5B2082D00DB08255948463018
:1021B0000021016041602A462146FDF7D5FF6019E4
:1021C000441C22212046FFF749FAC5B20A2D00DB44
:1021D0000A2550484E3000210160416001812A46A5
:1021E0002146FDF7C1FF002001E0B5E319E001F051
:1021F000DFFB802113A8FDF7D0FF46494E31A1F146
:102200000800831F434ACDE9000143A113A807F04A
:1022100075FD13A803F0ACF9042005F0AFFA02F045
:1022200041FB85E024D000084552524F5200000087
:1022300089020020000801402B434D515454434F64
:102240004E4E4C4F535400002A415452454144597C
:102250003A2031002B435245473A00002B4350535C
:10226000493A00004E4F205345525649434500001D
:10227000740000204F6E6C696E650000960B0020A4
:102280002B4350494E3A000052454144590000004A
:102290002B434D54490000008A0200208D0200208B
:1022A000F8D3000822534D5F50220000F40A0020AA
:1022B0002B43504D530000002B49504400000000B8
:1022C000434C4F53454400008F02002091020020F0
:1022D0002B434C42533A00002B4353513A20000009
:1022E00011D00008AE0B00202B434D5154545258CE
:1022F0005041594C4F41443A20300000A400002086
:102300002F636D642F6E62726F6B65722F00000019
:102310000D0A2200F8120020226E62726F6B657245
:10232000223A2225732C25732C25732C2573220029
:10233000F8A13498FDF73CFF0446002C54D00B3430
:102340002C212046FFF78AF9C5B2202D00DB20257D
:102350002021F348FDF721FF2A462146F048FDF7EA
:1023600003FF6019441C2C212046FFF777F9C5B202
:10237000102D00DB1025EA480021016241628162D4
:10238000C1622A4621462030FDF7EEFE6019441C4A
:1023900022212046FFF762F9C5B2102D00DB10257F
:1023A000DF480021016341638163C1632A462146FE
:1023B0003030FDF7D9FE002001F0FAFA802113A891
:1023C000FDF7EBFED6483030A0F11003D44AD5A17A
:1023D000009013A807F092FC13A803F0C9F804209A
:1023E00005F0CCF902F05EFAD3A13498FDF7E0FED7
:1023F00004465CB304F10A00FDF7F3FEC8496839EE
:10240000C1F8AC01002001F0D3FAC5486838D0F813
:10241000AC01B0F5347F05D94FF43470C049683948
:10242000C1F8AC01802113A8FDF7B7FEBC4868389D
:10243000C4A1D0F8AC2113A807F060FC13A803F0E6
:1024400097F8042005F09AF902F02CFAC0A134980C
:10245000FDF7AEFE0446F4B1002001F0A9FA04F144
:102460000A00FDF7BEFEAE496839C1F8B00180210F
:1024700013A8FDF792FEAA486838B8A1D0F8B02199
:1024800013A807F03BFC13A803F072F8042005F032
:1024900075F902F007FAB4A13498FDF789FE0446F5
:1024A0004CB3B4A001F084FAB5A1204601F0D2F8F3
:1024B000802113A8FDF771FEB548007830B904F10A
:1024C0000A02B4A113A807F019FC0EE0B048007886
:1024D000012805D1B2A2B6A113A807F00FFC04E0B1
:1024E000B6A2B3A113A807F009FC13A803F040F8A3
:1024F000042005F043F9B5A13498FDF759FE0446D0
:102500002CB3B5A001F054FA0A342046FDF762FE60
:10251000C5B2082D00DB08258148983000210160F4
:1025200041602A462146FDF71FFE802113A8FDF7D2
:1025300034FE7B4A9832ABA113A807F0DFFB13A847
:1025400003F016F8042005F019F902F0ABF9A8A180
:102550003498FDF72DFE044634B3002001F028FA2C
:102560000A342046FDF736FEC5B2082D00DB0825EB
:102570006B48983000218160C1602A4621460830AE
:10258000FDF7F2FD042005F0F9F8802113A8FDF70E
:1025900004FE634AA03299A113A807F0AFFB13A869
:1025A00002F0E6FF02F07EF997A13498FDF700FEF5
:1025B00004469CB3002001F0FBF9802113A8FDF72D
:1025C000ECFD94A12046FDF7F3FD50B101205449E4
:1025D000683981F8A80191A292A113A807F08EFB97
:1025E00014E093A12046FDF7E3FD50B100204C49D3
:1025F000683981F8A80190A28AA113A807F07EFB90
:1026000004E08FA287A113A807F078FB13A802F0BB
:10261000AFFF042005F0B2F802F044F98BA1349822
:10262000FDF7C6FD04469CB3002001F0C1F98021EE
:1026300013A8FDF7B2FD55A12046FDF7B9FD50B135
:1026400001203749683981F8A801002282A113A826
:1026500007F054FB14E083A12046FDF7A9FD50B11B
:1026600000202F49683981F8A80101227AA113A816
:1026700007F044FB04E07CA27DA113A807F03EFB19
:1026800013A802F075FF042005F078F802F00AF9AB
:102690007AA13498FDF78CFD0446F4B104F10A00E8
:1026A000FDF79FFD1E496839C1F8B801002001F00F
:1026B0007FF9802113A8FDF770FD1948683872A1D1
:1026C000D0F8B82113A807F019FB13A802F050FFA7
:1026D000042005F053F802F0E5F86EA13498FDF7F8
:1026E00067FD0446A4B16DA13498FDF761FD08B102
:1026F00001203390022005F041F8204603F036F91E
:102700008346FDF767FD20B1032005F037F8CFE0E1
:10271000CEE0C9E02F636D642F6E61706E2F0000F4
:10272000B8120020226E61706E223A2225732C2589
:10273000732C2573220000002F636D642F67737460
:10274000772F00002267737477223A2225642200D3
:102750002F636D642F676374772F000022676374A3
:1027600077223A22256422002F636D642F636F6401
:10277000652F00002F636D642F636F646500000098
:102780002F636D642F636F64652F222A3000000071
:10279000B403002022636F6465223A2573000000B1
:1027A00070617373776F7264207573650000000049
:1027B00022636F6465223A2225732200706173736D
:1027C000776F7264206572726F7200002F636D64A0
:1027D0002F6D6672712F00002F636D642F6D66720E
:1027E00071000000226D667271223A222573220068
:1027F0002F636D642F746672712F000022746672ED
:1028000071223A22257322002F636D642F75706444
:10281000742F0000226175746F2200006175746F5F
:10282000000000002275706474223A222573220091
:10283000226D616E752200006D616E7500000000F2
:102840006572726F7220636D640000002F636D64A7
:102850002F7270746D2F0000227270746D223A22F4
:1028600025642200310000006572726F7200000062
:10287000227270746D223A22257322002F636D64D8
:102880002F686266712F00002268627271223A22FC
:10289000256422002F617474000000002F6174749D
:1028A0002F6D6574610000000020339902F074FA06
:1028B000FDA13498FDF77CFC0446C4B1FCA134981A
:1028C000FDF776FC08B101203390022004F056FF9A
:1028D000204603F04BF88346FDF77CFC18B103203B
:1028E00004F04CFF03E00220339902F055FAF3A103
:1028F0003498FDF75DFC0446C4B1F2A13498FDF7AD
:1029000057FC08B101203390022004F037FF204625
:1029100003F02CF88346FDF75DFC18B1032004F0AA
:102920002DFF03E00320339902F036FAE8A1349832
:10293000FDF73EFC0446002C0ED0DEA13498FDF7D6
:1029400037FC08B101203390E3A13498FDF730FC47
:1029500018B1012004F012FF9EE0E2A13498FDF7C7
:1029600027FC90B1022004F009FF204602F0FEFF90
:102970008346FDF72FFC18B1032004F0FFFE8BE027
:102980000020339902F008FA86E0D8A13498FDF7C8
:102990000FFC90B1022004F0F1FE204602F0E6FFA9
:1029A0008346FDF717FC18B1032004F0E7FE73E03F
:1029B0000120339902F0F0F96EE0CEA13498FDF7D2
:1029C000F7FB90B1022004F0D9FE204602F0CEFFC2
:1029D0008346FDF7FFFB18B1032004F0CFFE5BE058
:1029E0000220339902F0D8F956E0C4A13498FDF7DB
:1029F000DFFB90B1022004F0C1FE204602F0B6FFDA
:102A00008346FDF7E7FB18B1032004F0B7FE43E06F
:102A10000320339902F0C0F93EE0BAA13498FDF7E3
:102A2000C7FB90B1022004F0A9FE204602F09EFFF1
:102A30008346FDF7CFFB18B1032004F09FFE2BE087
:102A40000420339902F0A8F926E0B0A13498FDF7EC
:102A5000AFFB08B300260EE006EB4602AD4800EBE4
:102A600042013498FDF7A4FB18B1304602F096F805
:102A700006E0701CC6B2A848D0F85002B042EBD8AD
:102A800000BFA548D0F85002B04202D8FF2002F0A3
:102A900085F8062004F072FEA0A13498FDF788FBAB
:102AA0000446002C75D09FA13498FDF781FB0446A5
:102AB000002C7CD0142003F013FCAFF2D4713498B6
:102AC000FDF776FB18B100209849087002E001205C
:102AD00096490870E41D2C212046FEF7BFFDC5B2C3
:102AE000402D00DB402540218B48A830FDF755FBE9
:102AF0002A4621468848A830FDF736FB6019441C59
:102B00002C212046FEF7AAFDC5B2062D00DB0625C6
:102B10008148E8300021016081802A462146FDF786
:102B200023FB6019441C2C212046FEF797FDC5B2FB
:102B3000082D00DB08257848EE3000210160416057
:102B40002A462146FDF710FB6019441C222120462D
:102B5000FEF784FDC5B20A2D00DB0A256E48F6306B
:102B600000210160416001812A462146FDF7FCFAFF
:102B7000002000F01DFF802113A8FDF70EFB664921
:102B8000F631A1F10800831FA0F14602CDE9000152
:102B900001E0EAE30BE066A113A807F0AFF813A881
:102BA00002F0E6FC042004F0E9FD01F07BFE66A1E2
:102BB0003498FDF7FDFA0446002C72D064A13498D5
:102BC000FDF7F6FA0446ACB1802113A8FDF7E5FA4B
:102BD000092262A113A8FDF7C7FA13A802F0C8FCE6
:102BE00000204D49C1F8D40150214A487C38FDF7F6
:102BF000D4FAF3E04FF0000B002010904649C1F8E2
:102C0000D401502143487C38FDF7C7FA00BF37E0B4
:102C1000002010902AE000200E900F900EAA584637
:102C2000109902F087FAE8B10EA93498C01DFDF79B
:102C3000BFFA0446B4B10EA936487C38FDF7B8FA9D
:102C400080B93548D0F8D411D0F8D401401C324AAC
:102C500001EB4101C2F8D40102F5EC7000EB410038
:102C60000E9901601098401CC0B210903E4810F8B8
:102C70000B1010988142CEDC0BF1010000F0FF0B2D
:102C8000BBF1050FC4DB802113A8FDF786FA37A13D
:102C900003C9CDE913012048D0F8D40110B10026B2
:102CA00083E0A0E08DE000002F737473000000004B
:102CB0002F7374732F6D6574610000002F7374613E
:102CC000000000002F7374612F6D657461000000B7
:102CD00022676574223A000066756C6C64617461E9
:102CE00000000000226174740000000022636D6423
:102CF00000000000227374730000000022647461FD
:102D0000000000002264696100000000226162612D
:102D100063000000A4140020501200202273657488
:102D2000223A000062726F6B223A0000A400002079
:102D30002262726F6B223A2225732C25732C257325
:102D40002C2573220000000072616D6C223A000095
:102D500072616D6C223A5B5D000000002272616D51
:102D60006C223A5B5D00000088D600082272616D1B
:102D70006C223A5B0000000013A8FDF72BFA13A9A0
:102D8000084406EB46010D90FE4800EB4102FEA10F
:102D90000D9806F0B3FF13A8FDF71CFA13A9084419
:102DA000FBA109780170701CC6B2FA48D0F8D401B2
:102DB000B042E1D813A8FDF70DFA401E13A9002276
:102DC0000A5413A8FDF706FA13A90844AFF26C01E0
:102DD0000978017013A802F0CBFB00BF042004F0B7
:102DE000CDFC01F05FFDECA13498FDF7E1F904465C
:102DF000F4B1A01DFDF7F5F907B2012F05DBB7F51A
:102E0000347F02DAE348C0F8D071802113A8FDF7BF
:102E1000C4F9E048E2A1D0F8D02113A806F06EFF73
:102E200013A802F0A5FB042004F0A8FC01F03AFD71
:102E3000DEA13498FDF7BCF90446002C72D0DDA168
:102E40003498FDF7B5F90446ACB1802113A8FDF71D
:102E5000A4F90922DAA113A8FDF786F913A802F054
:102E600087FB0020CB49C1F850023021C5487C3097
:102E7000FDF793F981E04FF0000B00201090C54959
:102E8000C1F850023021BF487C30FDF786F900BF01
:102E900037E0002010902AE000200E900F900EAA3C
:102EA0005846109902F046F9E8B10EA93498C01DB1
:102EB000FDF77EF90446B4B10EA9B2487C30FDF7A7
:102EC00077F980B9B348D0F85012D0F85002401CBE
:102ED000B04A01EB4101C2F8500202F5157000EB57
:102EE00041000E9901601098401CC0B21090B74884
:102EF00010F80B1010988142CEDC0BF1010000F0AD
:102F0000FF0BBBF1050FC4DB802113A8FDF745F9CA
:102F1000AFA103C9CDE913019E48D0F8500240B3D8
:102F200000261AE02EE013A8FDF754F913A908446F
:102F300006EB46010D9093487C3000EB410292A1D4
:102F40000D9806F0DBFE13A8FDF744F913A9084419
:102F50008FA109780170701CC6B28E48D0F850025B
:102F6000B042E0D813A8FDF735F9401E13A900229E
:102F70000A5413A802F0FCFA00BF042004F0FEFB80
:102F800001F090FC94A13498FDF712F9044694B333
:102F90004FF0000B92A1204600F05CFB402101A8FD
:102FA000FDF7FBF8802113A8FDF7F7F88F480078AC
:102FB000B0B92321E01DFEF751FB401C00F0FF0BD0
:102FC0005A46E11D01A8FDF7CFF801AA88A113A870
:102FD00006F094FE13A8FDF7FDF800F0FF0B11E0DA
:102FE00082480078012807D1AFF64C0280A113A8CF
:102FF00006F084FE06E00CE0AFF640027CA113A8C8
:1030000006F07CFE13A802F0B3FA042004F0B6FB2D
:1030100000BF7AA13498FDF7CBF80446F4B1A01DA7
:10302000FDF7DFF807B2002F05DDB7F5347F02DAD0
:103030005848C0F8AC71802113A8FDF7AEF8554888
:1030400070A1D0F8AC2113A806F058FE13A802F026
:103050008FFA042004F092FB01F024FC6CA1349858
:10306000FDF7A6F8044604B3A01DFDF7BAF807B2B1
:10307000002F07DD4748D0F8AC01B84202D94548D7
:10308000C0F8B071802113A8FDF787F8414862A10C
:10309000D0F8B02113A806F031FE13A802F068FAA8
:1030A000042004F06BFB01F0FDFB5EA13498FDF7FA
:1030B0007FF80446F4B3E41D2C212046FEF7CEFA37
:1030C000C5B2202D00DB2025202132486830FDF7D5
:1030D00064F82A4621462F486830FDF745F8601904
:1030E000441C2C212046FEF7B9FAC5B2102D00DB96
:1030F0001025284868300021016241628162C16266
:103100002A4621462030FDF72FF86019441C222161
:103110002046FEF7A3FAC5B2102D00DB10251D488E
:1031200068300021016341638163C1632A462146FF
:10313000303000E019E0FDF717F8802113A8FDF703
:103140002CF814489830A0F11003A0F13002AFF62B
:103150002C21009013A806F0D1FD13A802F008FA64
:10316000042004F00BFB01F09DFB30A13498FDF727
:103170001FF8044624B1802113A8FDF70EF859E08A
:1031800082E00000281400202225732200000000A5
:103190002C0000005012002072616D74223A000071
:1031A0002272616D74223A256400000061626163DD
:1031B000223A000061626163223A5B5D0000000018
:1031C0002261626163223A5B5D00000088D60008DC
:1031D0002261626163223A007075626B223A2200BA
:1031E0007075626B223A222A30000000B40300207E
:1031F000227075626B223A222573220067737477FE
:10320000223A00002267737477223A256400000096
:1032100067637477223A00002267637477223A2545
:10322000640000006E61706E223A2200737763685A
:10323000223A22005EA12046FCF7BAFF68B15EA1E7
:1032400013A806F05BFD072005F054FD322003F0C3
:1032500047F8082005F04EFD10E05AA12046FCF783
:10326000A7FF38B159A113A806F048FD092005F0C1
:1032700041FD03E059A113A806F040FD13A802F098
:1032800049FB042004F07AFA58A13498FCF790FF27
:103290000446A4B1802113A8FCF77FFF2046FCF769
:1032A00099FF83465A46214613A8FCF75DFF13A8F1
:1032B00002F05EF9042004F061FA01F0F3FA4DA186
:1032C0003498FCF775FF044684B3802113A8FCF7FB
:1032D00064FF4AA12046FCF76BFF48B10120484932
:1032E00081F8A801002247A113A806F007FD15E008
:1032F00047A12046FCF75CFF48B10020404981F817
:10330000A80101223FA113A806F0F8FC06E0AFF6E1
:10331000A822AFF6A42113A806F0F0FC13A802F02F
:1033200027F9042004F02AFA01F0BCFA39A13498F4
:10333000FCF73EFF0446C4B1A01DFCF752FF304924
:10334000C1F8B801802113A8FCF727FF2C4833A14E
:10335000D0F8B82113A806F0D1FC13A802F008F9A0
:10336000042004F00BFA01F09DFAB9F1000F1BD014
:10337000D9F808101298FCF71BFF0446A4B1D9F83D
:103380000000162803D117202749087005E0012006
:1033900026490870002024490870D9F8100018B197
:1033A000D9F810101298884739B0BDE8F08F0000A6
:1033B000226F6E22000000002273776368223A2297
:1033C0006F6E2200226F6666220000002273776310
:1033D00068223A226F66662200000000227377633B
:1033E00068223A226572726F72220000726561640F
:1033F000223A22007270746D223A00003A300000C6
:1034000050120020227270746D223A256400000070
:103410003A31000068626671223A000022686266F2
:1034200071223A256400000054000020550000205D
:103430002DE9F04107460D462846FCF7CBFE00F08B
:10344000FF0809A1384600F0F3FA044654B1641CA1
:1034500022212046FEF702F9C6B232462146034831
:10346000FCF782FEBDE8F081222B0000820B0020D9
:103470002DE9F04704460D462846FCF7ABFEC6B2E0
:10348000A0192221FEF7EAF8C7B2062F00DB0627B3
:103490001448002101608180A1193A46FCF764FEBE
:1034A0001148FCF797FE80462846FCF793FEC0F1D2
:1034B00080090C48FCF78EFEA9EB0000801E8045B9
:1034C0000BD20948FCF786FE074900EB0108054BC3
:1034D0002A4606A1404606F011FC01F0E3F9BDE8DA
:1034E000F087000038130020020B0020257325739D
:1034F000222C000030B5A1B0802101A8FCF74DFEC0
:103500003E480078C008B0B13C48007820F0F80090
:103510003A49087008464078401C48700846407890
:10352000062808DA36480078FEF73EF9002141F215
:10353000883005F0B7FE3348C08833490860334807
:10354000046854E0601E3249085C0D2804D1084626
:10355000005D0A2800D1DCB92D48005D3E2817D057
:103560002B48005D7D2813D0A01E2949085C2949FD
:10357000097888423AD1601E2549085C2549497876
:10358000884233D12248005D2249897888422DD172
:103590000A2002F0A5FE601C1C490968401A1E4959
:1035A000086004211DA003F0E3FD01A8FCF712FE52
:1035B00085B2294601A803F0DBFD1549134A1268BC
:1035C0008818FCF707FE85B21149104A126888185E
:1035D000294603F0CDFD0E490C4A126888180849A7
:1035E0000978FEF70DFC601C08490860641C064859
:1035F00000688442A6D321B030BD0000D40400206E
:103600005400002008000020580000206000002026
:10361000F4060020AE0B00205C00002047534D3A1A
:103620000000000070B504462046FCF7D3FD85B2CB
:103630002946204606F070FA042104A003F098FD04
:103640002946204603F094FD70BD00004D43553AD5
:10365000000000002DE9F04F93B08046894600201D
:103660000490039002900190009080A14046FCF7E6
:103670009FFD08B1012002904846FCF7ABFDC0B2A7
:103680001290129908EB01002321FDF7E7FFC0B269
:103690001190202105A8FCF780FD129808EB00048A
:1036A00005A8109000270EE0E05D202809D0E15D1C
:1036B000109801701098401C10900198401CC0B2E6
:1036C0000190781C87B211988742EDDB6A48FCF7BD
:1036D00081FD82464846FCF77DFDC0F1800B05A8C0
:1036E000FCF778FDABEB0000801E82450DD20298FE
:1036F00058B96148FCF76EFD5F4900EB010A05AB64
:103700004A465EA1504606F0F9FA019814280FDAED
:10371000029868B95848FCF75DFD57490844A0F184
:10372000010A58A1504606F0E9FA13B0BDE8F08F3F
:103730000198142806DA5948407820F00200801CCD
:10374000564948700DF11E0000F09EF90646002013
:103750008DF81E0005A800F097F90546202105A860
:10376000FCF71BFDC5208DF821006A208DF8220092
:1037700029208DF823000E208DF82400FA208DF8E2
:103780002500300E8DF82900300C8DF82800300A05
:103790008DF82700F0B28DF82600280E8DF82D0048
:1037A000280C8DF82C00280A8DF82B00E8B28DF833
:1037B0002A000DF12104207B8DF83700E07A8DF886
:1037C0003600A07A8DF83500607A8DF83400207AC2
:1037D0008DF83B00E0798DF83A00A0798DF839003A
:1037E00060798DF838002E48DDE90D12C0E9141219
:1037F00004F086FB2B48007808B903F0A3F82948A9
:103800000078012810D11C48FCF7E4FC7A2821D26A
:103810001948FCF7DFFC1849084423A10A6840F85E
:10382000012C0979C17015E01E480078022811D1D9
:103830001148FCF7CFFC7A280CD20F48FCF7CAFCE1
:103840000D4908441AA10A6840F8012D8A8882802F
:10385000897981711348007800906A460C21022012
:1038600001F0BAFE01F01EF800BF5EE72F636D6441
:103870002F636F6465000000020B00202573257321
:10388000222C00006973206E6F7420636F72726562
:10389000637420666F726D61742E20003A020020FE
:1038A000CC730020B4030020207573652200000053
:1038B000206572726F7222002DE9F04704460D46B2
:1038C0002846FCF787FCC6B2A0192221FDF7C6FEE8
:1038D000C7B2082F00DB0827154800218160C160AE
:1038E000A1193A460830FCF73FFC1248FCF772FC7D
:1038F00080462846FCF76EFCC0F180090C48083071
:10390000FCF768FCA9EB0000801E80450CD209483A
:10391000FCF760FC074900EB0108054B08332A4619
:1039200005A1404606F0EAF900F0BCFFBDE8F087CB
:1039300050130020020B002025732573222C000059
:1039400070B51648FCF746FC044622461349144855
:10395000FCF70AFC3C211348FCF71FFC1248FCF75B
:1039600039FC0446224610490E48FCF7FDFB0C4882
:10397000FCF730FC05460B48FCF72CFC09494418C1
:103980002A4607492046FCF7EFFB0648FCF722FCD5
:103990000449084405A10988018070BDCC7300204A
:1039A000AE0B00202A0C0020FFCF00082F230000C0
:1039B00070B5044614211948FCF7EFFB1848FCF7D2
:1039C00009FC05462A4616491448FCF7CDFB402160
:1039D0001448FCF7E2FB1448FCF7FCFB05462A46BA
:1039E00011491048FCF7C0FB0C48FCF7F3FB0646F6
:1039F0000C48FCF7EFFB0B494518324607492846AF
:103A0000FCF7B2FB4CB10748FCF7E4FB054945184D
:103A1000224606A1284606F071F970BDAE0B0020C3
:103A2000CC730020EA0B0020F0CF000825730000C3
:103A30002DE9F04706460F46124800881FFA80F924
:103A40003846FCF7C7FB1FFA80F8002513E0002476
:103A500007E02819305C395D884200D003E0601C23
:103A600084B24445F5DB00BF444502D17019BDE87E
:103A7000F087681C85B2A9EB0800A842E7DC0020AB
:103A8000F5E700005C0000202DE9F0410546002428
:103A90002846FCF79FFBC7B2002600BF0EE0285D5A
:103AA000302802DB285D392800DD09E006EB8600BE
:103AB0004600285D30380644601CC4B2BC42EEDBD0
:103AC00000BF3046BDE8F081F0B59BB00025002076
:103AD0001290002600271190604C202113A8FCF7BB
:103AE0005CFB00F0DFF812AA13A9204600F066FB89
:103AF000002870D09DF8480000286DD05848007804
:103B0000001F08282AD2DFE800F0042A3D505F6831
:103B10006F829DF84800202808DA13AA51A101A855
:103B200006F0ECF853A101A8FFF794FD5548007882
:103B300028B9202213A95448FCF716FB00E000BF67
:103B40005048007850495C3981F8240118204449D4
:103B500008704E490870642002F0C2FB6AE04A48CF
:103B60005C38BDF84C10A0F87C1011AA0121084661
:103B700001F062FABDF844004549C1F8AC0100F01B
:103B800091FE57E040485C38BDF84C10A0F87E101C
:103B900011AA0221012001F04FFABDF844003C496E
:103BA000C1F8B00100F07EFE44E0202213A936489F
:103BB0002430FCF7D9FA364A68320321012001F09B
:103BC0003BFA00F06FFE35E02F485C38BDF84C1032
:103BD000A0F87E102EE03FE02DE0202213A92A4815
:103BE0004630FCF7C1FA25E027485C38BDF84C1098
:103BF000A0F8C21011AA0621012001F01DFABDF89B
:103C00004400234981F8A80100F04CFE12E01E4850
:103C10005C38BDF84C10A0F8C41011AA072101208F
:103C200001F00AFABDF844001949C1F8B80100F0E2
:103C300039FE00BF00BF4FF480710848FCF7ADFAB1
:103C400000201449C880054808600548007800F045
:103C500051F8642002F044FB1BB0F0BDE60C0020DC
:103C6000A60000202F636D642F636F64652F2225EB
:103C7000732200002F636D642F636F64652F222A07
:103C800030000000B403002072670020A90000206B
:103C900050120020000000200120014908707047E8
:103CA000A700002010B510480078E0B10F48008848
:103CB00020B10E480088401E0C4908800B4800883F
:103CC00038B90B4908780978491C094B197000F07C
:103CD00011F8074800783D2802DD002004490870EB
:103CE00000200149087010BDA7000020AC00002092
:103CF000A900002070B588B00446002500262021C8
:103D00006846FCF74AFA3E2C75D2DFE804F01F271C
:103D10003039414A525A636B757D858D969FA8B1A3
:103D2000B9C1F3FBF0EFEEEDECEBEAE9E8E7E6E52D
:103D3000E4E3E2E1E0DFDEDDDCDBDAD9D8D7D6D5BB
:103D4000D4D3D2D1D0CFCECDCCCBCAC90126142268
:103D5000F9496846FCF708FA202522E201262022CC
:103D6000F54914316846FCF7FFF9202519E20126D0
:103D70002022F14934316846FCF7F6F9202510E29B
:103D80000126ED48416D0091806D0190202508E2EB
:103D900001262022E8495C316846FCF7E5F9202538
:103DA000FFE10126E448B0F87C00ADF800000225F0
:103DB000F7E10126E048B0F87E00ADF800000225EA
:103DC000EFE101262022DC4980316846FCF7CCF97E
:103DD0002025E6E10126D848B0F87E00ADF80000C5
:103DE0000225DEE101262022D349A2316846FCF7F4
:103DF000BBF92025D5E1D3E10126CF48B0F8C200B8
:103E0000ADF800000225CCE10126CB48B0F8C40093
:103E1000ADF800000225C4E10126C748B0F8C6008D
:103E2000ADF800000225BCE101261022C249C831CC
:103E30006846FCF799F92025B3E101261022BE4916
:103E4000D8316846FCF790F92025AAE10126102216
:103E5000B949E8316846FCF787F92025A1E1012638
:103E60001022B549F8316846FCF77EF9202598E123
:103E700001261022B1496846FCF776F9202590E129
:103E80000126AD48B0F81801ADF80000022588E120
:103E90000126A948B0F81A01ADF80000022580E11A
:103EA00076E16DE164E15BE152E149E13CE133E15E
:103EB0002AE121E118E10FE106E1FDE0F4E0EBE0A9
:103EC000E2E0D9E0D0E0C7E0BEE0B5E0ABE0A2E0E0
:103ED00098E08EE085E07CE073E06AE061E059E024
:103EE00050E047E03EE035E02CE023E01AE011E04E
:103EF00008E0FFE701269048B0F81C01ADF800008B
:103F000002254EE101268C48B0F81E01ADF80000F4
:103F1000022546E101268848B0F82001ADF80000EE
:103F200002253EE101268448B0F82201ADF80000E8
:103F3000022536E101268048B0F82401ADF80000E2
:103F400002252EE101267C48B0F82601ADF80000DC
:103F5000022526E101267848B0F82801ADF80000D6
:103F600002251EE101267448B0F82A01ADF80000D0
:103F7000022516E101267048B0F82C01ADF80000CA
:103F800002250EE101266C48B0F82E01ADF80000C4
:103F9000022506E101266848D0F83001009004258A
:103FA000FFE001266448B0F83401ADF800000225B6
:103FB000F7E001266048B0F83601ADF800000225B0
:103FC000EFE001265C48B0F83801ADF800000225AA
:103FD000E7E001265848B0F83A01ADF800000225A4
:103FE000DFE001265448B0F83C01ADF8000002259E
:103FF000D7E001261022514936316846FCF7B4F863
:104000001025CEE0012610224C4946316846FCF7C7
:10401000ABF81025C5E001264748B0F85E01ADF8C1
:1040200000000225BDE001261822444958316846A7
:10403000FCF79AF81825B4E001263F48B0F878015B
:10404000ADF800000225ACE001263B48B0F87A014B
:10405000ADF800000225A4E001263748B0F87C0145
:10406000ADF8000002259CE001263348B0F87E013F
:10407000ADF80000022594E001262F48B0F8800139
:10408000ADF8000002258CE001262B48B0F8820133
:10409000ADF80000022584E001262748B0F884012D
:1040A000ADF8000002257CE001262348B0F8860127
:1040B000ADF80000022574E001261F48B0F8880121
:1040C000ADF8000002256CE001261B48B0F88A011B
:1040D000ADF80000022564E001261748B0F88C0115
:1040E000ADF8000002255CE001261348B0F88E010F
:1040F000ADF80000022554E001260F48B0F8900109
:10410000ADF8000002254CE001260B48B0F8920102
:10411000ADF80000022544E001260748B0F89401FC
:10412000ADF8000002253CE001260348B0F89601F6
:10413000ADF80000022534E0166700201E6800205C
:1041400001261D48B0F89801ADF80000022528E0CE
:1041500001261948B0F89A01ADF80000022520E0C8
:1041600001261548B0F89C01ADF80000022518E0C2
:1041700001261148B0F89E01ADF80000022510E0BC
:1041800001260D48B0F8A001ADF80000022508E0B6
:1041900001260948B0F8A201ADF80000022500E0B0
:1041A00000BF00BF36B104F18001C8B22A4669469B
:1041B00000F040F808B070BD166700202DE9F04708
:1041C00005460E4617464FF00008C1462C4620789B
:1041D000AA282BD1E078401D6178884226D16078EA
:1041E000401C00EB05086078401E00EB0509607874
:1041F000801E81B2601C00F097F8B9F80010884268
:1042000014D1B8F8000045F65B2188420ED1E07861
:1042100020B1E278211D3046FBF7A6FFE078387028
:10422000A078034908700120BDE8F0870020FBE773
:10423000A6000020FEB506460F461546AA208DF8BA
:104240000000681DC0B28DF801008DF80260E8B270
:104250008DF8030080212448FBF79FFF2248009936
:1042600001603FB17C2D05DC25B12A463946001D91
:10427000FBF77AFF9DF80100801E81B21A48401CAE
:1042800000F052F8ADF8080045F65B20ADF80A00E2
:104290009DF80100401E1449084402990160002461
:1042A0001BE09DF80100C01C04F10801884205DDF7
:1042B0000D490819082100F019F808E09DF80120BF
:1042C000D21C121BD1B2084A101900F00FF80220BC
:1042D00002F006F804F10800C4B29DF80100C01C09
:1042E000A042DEDCFEBD0000660C002070B5044676
:1042F0000D462946204605F0D3FB70BD0020044939
:10430000C8804FF4807088800248086070470000C1
:1043100000000020E60C00200120014908707047D1
:10432000AE00002000BFFEE770B502460C46FF2538
:10433000FF2309E012F8010B80EA05010648405C02
:1043400080EA03050548435C201EA4F10106B4B2CF
:10435000F0D145EA032070BD88D4000888D5000854
:1043600010B50246002006E013784340034CE05CA1
:10437000521C4B1ED9B20029F6DC10BDC000002033
:104380000120014908707047B10000202DE9F04F6D
:1043900091B005460E4617464FF00009CA46C8467A
:1043A000C3462846FBF716FF81463046FBF712FF4F
:1043B000824615B10EB14F4503DD002011B0BDE8B6
:1043C000F08F002402E008F10108641CBC42FADB13
:1043D000002406E02A5D58460BF1010B01A90A549E
:1043E000641C4C45F6DB002405E0325D404608F1D4
:1043F00001082A54641C5445F7DB3C4606E001A83A
:10440000025D404608F101082A54641C4C45F6DB65
:10441000002005F808002846D0E770B503460A4694
:1044200000200AE00A25B3FBF5F605FB163530350A
:1044300015540A25B3FBF5F3401C002BF2D1411EA5
:1044400008E0545C451A6D1E555D5554451A6D1EA5
:104450005455491E00EBD076B1EB660FF1DA70BD12
:104460000120014908707047B000002000B589B0F4
:104470004FF4C06006F0BCFD06A9002006F071FAFA
:1044800001A9012006F06DFA2D4806F0CBF840F2A4
:10449000197006F0ADFD4FF400630322482129484E
:1044A00006F09CFB4FF4805303221821254806F0A8
:1044B00095FB00208DF81C008DF81D008DF81E0066
:1044C0008DF81F008DF820008DF821008DF8180060
:1044D0008DF8190004208DF81A0002208DF81B00B9
:1044E0000C20ADF8220006A9154806F033F900208B
:1044F000ADF80E00ADF810000120ADF8120000205C
:10450000ADF80400ADF80600ADF80800ADF80A00FB
:10451000ADF80C0001208DF8140001A806F092F807
:104520000221074806F0A7F90749032006F019FA07
:1045300000221146142006F05DFC09B000BD000009
:1045400000640040000801405405002010B581209F
:1045500006F07EFD04460C480078A04211D10B48BD
:104560000078062805DA09480078401C07490870D9
:1045700009E00748407820F00400001D0449487015
:1045800001E00148047010BD5302002050020020D9
:104590003A0200200120014908707047C101002043
:1045A000704701B5BDF8000000EBC00101EB001041
:1045B0004FF6FF7101EAC000009004E0BDF8000072
:1045C000401E80B20090BDF800000028F6D108BD62
:1045D000002001E0411CC8B21428FBDB704700003A
:1045E0000120014908707047F0020020014890F84E
:1045F000AB017047501200200148D0F8B801704755
:10460000501200200448D0F8B001C0EB0010800028
:104610004FF47A7148437047501200200148D0F897
:10462000D4017047501200200348D0F8D0014FF455
:104630007A71484370470000501200200748D0F8B4
:10464000AC0148B10548D0F8AC01C0EB00108000C7
:104650004FF47A71484370470148FCE7501200203C
:10466000E09304000148D0F8BC01704750120020CC
:1046700010B54FF423714848FBF78FFD464A4FF4BD
:104680002371002000F0EEF84348D0F88802434937
:1046900088427DD040480078FF2805D14FF423712F
:1046A0003D48FBF77AFD05E04FF409713A48683060
:1046B000FBF773FD982138486830FBF76EFD3848EA
:1046C0000021016041608160C16098211030FBF7DA
:1046D00064FD0F2233A130486830FBF745FD1C22F2
:1046E00034A12F485838FBF73FFD2D48183839A121
:1046F0000A6802600979017138A10A68C0F80620C9
:104700008A884281897901730E3036A10A68026075
:10471000496841601C2236A15A30FBF725FD20482C
:1047200090303BA10A680260097901711A483AA1E8
:104730000A68C0F89621097980F89A1138A10A68A8
:10474000C0F89E214968C0F8A2110120124981F8E1
:10475000A801052081F8A901C1F8AC010220C1F827
:10476000B0010120C1F8B8010020C1F8BC011E2031
:10477000C1F8D0010020C1F8D401C1F850023021A5
:104780002A48FBF70AFD05480349C1F8880200E002
:1047900001E000F087F810BD5012002067452301AA
:1047A000501300206F72616E67652E6D326D2E732F
:1047B000706563006D7174742D636C69656E74311E
:1047C0002E6F6D6E69766F6C746169632E636F6DA9
:1047D000000000003138383834000000436C69654F
:1047E0006E74310033517470466E44530000000003
:1047F0006D7174742D666163746F72792E6F6D6E56
:1048000069766F6C746169632E636F6D00000000E0
:10481000313838383300000041646D696E000000A3
:1048200037787A5556404D5400000000A4140020FB
:1048300010B50A48007880B100200849087003F0DC
:1048400031FB0446682221460548FBF78DFC044AEB
:104850004FF42371002000F02BF810BD5802002007
:104860005012002070B504460D461646AAB2A1B2F9
:104870003346A02001F0ADFE70BD000000B5024639
:10488000024880F8AB2100F00DF800BD5012002066
:1048900000B502460248C0F8BC2100F003F800BD94
:1048A0005012002001200149087070475802002072
:1048B0002DE9F04106460D46174600244FEA5518EB
:1048C00000BF0CE007EB441306EB441081B220223A
:1048D000A02001F0BDFE052001F002FD641C44454E
:1048E000F0D305F01F0048B107EB441305F01F0299
:1048F00006EB441081B2A02001F0AAFEBDE8F081D1
:1049000010B5012006F00CF928B1012001F0F8FCE7
:10491000012006F0FFF810BD10B54FF4C06006F09E
:1049200067FB4FF4A06006F0BBFA02221146062096
:1049300006F060FA0021012006F004F901220021AE
:10494000104606F089F8012006F0E4F810BD0000DA
:104950002DE9F04F85B00027B846B946BA46BB46A8
:10496000764806784FF480517548FBF716FC142101
:104970006846FBF712FC724C7248D0F8500220B126
:104980007048D0F85002082800D300266EA00078A6
:1049900020702046FBF71EFC04446A48D0F8500201
:1049A00020B16848D0F85002082805D367A269A151
:1049B000204605F0A3F908E006EB4601694800EB44
:1049C000410264A1204605F099F92046FBF702FC5C
:1049D000044465A00168216000792071641D0025F0
:1049E00012E0C6EBC60000EB4620614901EB8000F7
:1049F00050F825205FA1204605F080F92046FBF7FE
:104A0000E9FB0444681C85B23C2DEADB5AA10A6824
:104A100044F8012C8A88A4F8032089796171A41DC7
:104A2000002513E0C6EBC60000EB4620504901EB21
:104A30008000F03050F825204EA1204605F05EF9A8
:104A40002046FBF7C7FB0444681C85B23C2DE9DB1C
:104A50004BA10A6844F8012C8A88A4F803208979BC
:104A60006171A41D002514E0C6EBC60000EB4620D2
:104A70003F4901EB800000F5F07050F825203DA182
:104A8000204605F03BF92046FBF7A4FB0444681CD4
:104A900085B2182DE8DB3CA10A6844F8012C8A880D
:104AA000A4F8032089796171A41D002514E0C6EBE8
:104AB000C60000EB46202E4901EB800000F5107087
:104AC00050F825202BA1204605F018F92046FBF7C9
:104AD00081FB0444681C85B2B5F5B67FE7DD2CA1E7
:104AE0000A6844F8012C8A88A4F803208979617146
:104AF000A41D002514E0C6EBC60000EB46201C49AF
:104B000001EB800000F2F47050F8252019A1204636
:104B100005F0F4F82046FBF75DFB0444681C85B201
:104B20000A2DE8DB641E1CA0008820800020FEF710
:104B30003FFF034805B0BDE8F08F00006002002091
:104B40003C560020501200207B0000006E756C6CFB
:104B5000000000002261626163223A222573222C48
:104B600000000000A41400202273223A5B00000021
:104B70005C15002025642C005D2C226D223A5B0020
:104B80005D2C2268223A5B005D2C2264223A5B0095
:104B90005D2C2279223A5B005D7D0000014908709E
:104BA0007047000060020020F8B54FF480515F4864
:104BB000FBF7F3FA5D4E5E49B1F8B41188B200F02C
:104BC0005DFD5B49B1F8B01188B200F065FD584950
:104BD000B1F8AC1188B200F07BFD002799E069467E
:104BE000384600F07DFA044604B990E0052F2ED235
:104BF000DFE807F00309121B24004EA001683160B2
:104C00004068706023E0761E4DA001683160416805
:104C10007160007A30721AE0761E4CA00168316033
:104C200041687160007A307211E0761E4AA0016816
:104C3000316041687160007A307208E0761E49A0E8
:104C40000168316041687160007A307200BF00BF56
:104C50003046FBF7BFFA0644002553E004EB05108D
:104C6000C06802280CD104EB05104068B0F9003090
:104C700004EB05103EA10268304605F03FF83BE02A
:104C800004EB0510C06801280AD104EB0510436845
:104C900004EB051039A10268304605F02FF82BE02F
:104CA00004EB0510C06804280AD104EB0510436822
:104CB00004EB051034A10268304605F01FF81BE034
:104CC00004EB0510C06805280BD104EB0510406803
:104CD000036804EB051026A10268304605F00EF8C3
:104CE0000AE004EB05104068038804EB051020A1DE
:104CF0000268304605F002F83046FBF76BFA0644CE
:104D0000681CC5B29DF800008542A7DB00BF781C77
:104D1000C7B2052FFFF663AF761E1EA00088308055
:104D20000020FEF745FE0148F8BD00003C5600207B
:104D3000501200207B22617474223A7B0000000034
:104D40007D2C22636D64223A7B0000007D2C22734F
:104D50007473223A7B0000007D2C22647461223A35
:104D60007B0000007D2C22646961223A7B000000F8
:104D7000222573223A25642C00000000222573228C
:104D80003A222573222C0000222573223A25732C07
:104D9000000000007D7D00002DE9F04186B08046D6
:104DA0000F460025002000904FF480517848FBF713
:104DB000F4F9142101A8FBF7F0F9754E7549B1F823
:104DC000B41188B200F05AFC7249B1F8B01188B23F
:104DD00000F062FC6F49B1F8AC1188B200F078FCC9
:104DE0003046FBF7F7F906446946404600F078F98B
:104DF00005461DB9664806B0BDE8F081B8F1050F5B
:104E00004FD2DFE808F0031221303F003FB162A02B
:104E10000168316041687160007A307204E061A01D
:104E200001683160406870603BE03FB160A001689C
:104E3000316041687160007A307204E05FA00168FF
:104E40003160406870602CE03FB15FA00168316064
:104E500041687160007A307204E05BA001683160E3
:104E6000406870601DE03FB15AA001683160416840
:104E70007160007A307204E059A0016831604068C6
:104E800070600EE03FB159A0016831604168716007
:104E9000007A307204E058A00168316040687060A8
:104EA00000BF00BF3046FBF795F90644002465E0DB
:104EB0006FB105EB0410836805EB041051A1026883
:104EC000304604F01BFF01A8FEF772FD50E005EB31
:104ED0000410C06802280CD105EB04104068B0F93A
:104EE000003005EB04104AA10268304604F006FFCA
:104EF0003BE005EB0410C06801280AD105EB041063
:104F0000436805EB041045A10268304604F0F6FE44
:104F10002BE005EB0410C06804280AD105EB04104F
:104F2000436805EB041040A10268304604F0E6FE39
:104F30001BE005EB0410C06805280BD105EB04103D
:104F40004068036805EB041031A10268304604F0A4
:104F5000D5FE0AE005EB04104068038805EB041059
:104F60002BA10268304604F0C9FE0020FEF720FDA8
:104F70003046FBF72FF90644601CC4B29DF80000D0
:104F8000844295DB761E2BA000883080004832E7F3
:104F90003C560020501200207B225F617474223A3C
:104FA0007B0000007B22617474223A7B00000000C9
:104FB0007B225F636D64223A7B0000007B22636D7D
:104FC00064223A7B000000007B22737473223A7BD8
:104FD000000000007B225F647461223A7B000000C5
:104FE0007B22647461223A7B000000007B225F64B4
:104FF0006961223A7B0000007B22646961223A7B6E
:1050000000000000225F2573223A222573222C0023
:10501000222573223A25642C0000000022257322E9
:105020003A222573222C0000222573223A25732C64
:10503000000000007D7D00002DE9F84307460C4686
:1050400016466946384600F04BF805461DB19DF8F6
:105050000000844202DB0020BDE8F88305EB041069
:10506000C068062832D2DFE800F0030917311D2B93
:1050700005EB041040680088308029E005EB04113E
:105080004868FBF7A7F8804605EB041042464168E4
:105090003046FBF769F81BE005EB04104068008818
:1050A000308015E005EB04114868FBF793F8804663
:1050B00005EB0410424641683046FBF755F807E01F
:1050C00005EB041040680068306001E00020C3E791
:1050D00000BF0120C0E70000004870473C56002098
:1050E00002460023052A1AD2DFE802F003070C115A
:1050F0001500042008700C4B13E0082008700A4BC0
:1051000040330EE00E200870074BC03309E010203A
:105110000870064B05E014200870054B01E00020E4
:10512000704700BF1846FBE790D6000830D800084B
:1051300030D9000810B503460024052B3DD2DFE826
:1051400003F0030E1A263100042907DA1D4800EB8C
:105150000110006800681060012010BD2FE00829D0
:1051600008DA1848403000EB011000680068106051
:105170000120F2E723E00E2908DA1248C03000EBE4
:1051800001100068006810600120E6E700BF1029E8
:1051900007DA0D4800EB011000680068106001207C
:1051A000DBE70CE0142907DA084800EB011000687F
:1051B000006810600120D0E701E00020CDE700BFCB
:1051C0000020CAE790D6000830D8000830D900087F
:1051D00008B56A4606210320FFF72EFFBDF8000040
:1051E00008BD000010B5B8211048FAF7D6FF2221FB
:1051F0000F48FAF7D2FF4FF4D2710E48FAF7CDFFFD
:105200000DA000F08BFA0CA000F070FA0AA20B219E
:10521000032000F0E1F908A20A21032000F0DCF9E4
:1052200007A20D21032000F0D7F910BD3C66002035
:10523000F466002016670020302E30300000000099
:10524000200000002DE9F04786B04FF0000900254E
:1052500000200090824680464FF480518C48FAF737
:105260009CFF142101A8FAF798FF8A49B1F8B411FC
:1052700088B200F003FA8749B1F8B01188B200F0A3
:105280000BFA8449B1F8AC1188B200F021FA804ED3
:105290008048D0F8D40118B9304606B0BDE8F08790
:1052A0007DA0007830703046FAF794FF064400275E
:1052B000DCE04FF0000869463846FFF711FF05466D
:1052C00005B9D1E07348D0F8D401484500D8D0E002
:1052D0000024B3E005EB041209EB490311686F4A9F
:1052E00002EB4300FAF764FF00286ED0052F45D289
:1052F000DFE807F003101D2A3700B8F1000F06D1D0
:1053000067A0016831608188B1808079B0714FF009
:10531000010833E0B8F1000F06D163A001683160E5
:105320008188B1808079B0714FF0010826E0B8F132
:10533000000F06D15EA0016831608188B18080795C
:10534000B0714FF0010819E0B8F1000F06D15AA072
:10535000016831608188B1808079B0714FF00108B7
:105360000CE0B8F1000F06D155A0016831608188CA
:10537000B1808079B0714FF0010800BF00BF3046A6
:10538000FAF728FF064405EB0410C06802280CD188
:1053900005EB04104068B0F9003005EB04104AA199
:1053A0000268304604F0AAFC3CE005EB0410C0683B
:1053B00001280BD105EB0410436805EB041045A14F
:1053C0000268304604F09AFC2CE035E005EB04104E
:1053D000C06804280AD105EB0410436805EB0410EB
:1053E0003FA10268304604F089FC1BE005EB041085
:1053F000C06805280BD105EB04104068036805EB75
:10540000041031A10268304604F078FC0AE005EB94
:1054100004104068038805EB04102BA10268304695
:1054200004F06CFC09F1010000F0FF091948D0F804
:10543000D401484500D806E0601CC4B29DF80000C5
:105440008442FFF647AF00BFB8F1000F0BD03046E3
:10545000FAF7C0FE401E064424A000883080304683
:10546000FAF7B8FE064400BF781CC7B2052FFFF656
:1054700020AF00BF3046FAF7ADFE401E06441CA028
:10548000007830700020FEF793FA014805E700002D
:105490003C560020501200207B0000002814002001
:1054A00022617474223A7B0022636D64223A7B008D
:1054B00022737473223A7B0022647461223A7B0067
:1054C00022646961223A7B00222573223A25642CEA
:1054D00000000000222573223A222573222C0000AE
:1054E000222573223A25732C000000007D2C000039
:1054F0007D0000000149A1F8500070473C66002083
:1055000001B5BDF800000449A1F88E006A460521E6
:10551000032000F061F808BD3C66002001B5BDF82D
:1055200000000449A1F890006A460921032000F018
:1055300053F808BD3C66002001B505490098A1F864
:105540008C006A460421032000F046F808BD0000E4
:105550003C66002001B5BDF800000449A1F87C00BC
:105560006A460021032000F037F808BD3C660020A1
:1055700070B50546134C4FF480512046FAF70DFEE6
:1055800011A001682160406860602046FAF722FEA1
:1055900004442846FAF71EFE40F6F671884208D207
:1055A0002846FAF717FE0646324629462046FAF7FD
:1055B000DBFD2046FAF70EFE044406A0008820809A
:1055C00070BD00003C5600207B22636D64223A7B54
:1055D000000000007D7D00002DE9F84307460C46E1
:1055E0001646002569463846FFF77AFD05461DB187
:1055F0009DF80000844202DB0020BDE8F88305EB43
:105600000410C06806282ED2DFE800F00309152D2B
:105610001B2705EB041040683188018025E03046E7
:10562000FAF7D8FD804605EB04114246486831463A
:10563000FAF79AFD19E005EB041040683188018003
:1056400013E03046FAF7C6FD804605EB04114246EA
:1056500048683146FAF788FD07E005EB041040681A
:105660003168016001E00020C7E700BF0120C4E706
:105670000149A1F84C0070473C66002001B5BDF817
:1056800000000449A1F8B6006A4607210220FFF78E
:10569000A3FF08BD3C66002001B5BDF80000044929
:1056A000A1F876006A4602210120FFF795FF08BDA8
:1056B0003C66002001B5BDF800000449A1F8B40023
:1056C0006A4606210220FFF787FF08BD3C660020DE
:1056D00001B5BDF800000449A1F874006A46012133
:1056E0000846FFF779FF08BD3C66002070B5044608
:1056F0002046FAF76FFD10280DD22046FAF76AFD12
:1057000005462A4621460448FAF72EFD024A04219E
:105710000220FFF761FF70BDD066002070B504461F
:105720002046FAF757FD10280DD22046FAF752FD11
:1057300005462A4621460448FAF716FD024A052185
:105740000220FFF749FF70BDE066002070B50446F7
:105750000D461F2D09DC2A4621460448FAF704FDB0
:10576000224600210120FFF737FF70BD9066002020
:1057700001B5BDF800000449A1F878006A46072188
:105780000120FFF729FF08BD3C66002001B5BDF8E8
:1057900000000449A1F880006A4602210320FFF7B7
:1057A0001BFF08BD3C66002070B505460C46142C56
:1057B00009DC224629460448FAF7D6FC024A0021B1
:1057C0000846FFF709FF70BD3C66002001B5BDF833
:1057D00000000449A1F844006A460D210220FFF7A9
:1057E000FBFE08BD3C66002001B5BDF80000044981
:1057F000A1F840006A460A210220FFF7EDFE08BD2D
:105800003C66002001B5BDF800000449A1F8420043
:105810006A460B210220FFF7DFFE08BD3C66002030
:1058200070B505460C46202C09DC22462946044862
:10583000FAF79AFC024A01210020FFF7CDFE70BD65
:105840005066002001B5BDF800000449A1F84800E9
:105850006A4606210320FFF7BFFE08BD3C66002014
:1058600001B5BDF800000449A1F87A006A46062196
:105870000120FFF7B1FE08BD3C66002001B5BDF870
:1058800000000449A1F84A006A4607210320FFF7F7
:10589000A3FE08BD3C66002001B5BDF80000044928
:1058A00088876A4608210220FFF796FE08BD00009F
:1058B0003C6600200149A1F84E0070473C6600207C
:1058C00001B5BDF800000449C8876A4609210220D5
:1058D000FFF782FE08BD00003C66002001B5BDF860
:1058E00000000449A1F87E006A4601210320FFF769
:1058F00073FE08BD3C66002001B5BDF800000449F8
:10590000A1F846006A4600210220FFF765FE08BDA7
:105910003C66002070B504464FF480510948FAF700
:105920003CFC2046FAF756FCB0F5805F08D22046D2
:10593000FAF750FC05462A4621460248FAF714FCBD
:1059400070BD00003C56002070B505460C46082C82
:1059500009DC224629460448FAF706FC024A0321DC
:105960000020FFF739FE70BD706600202DE9F0437E
:1059700087B0814600250020019000274FF4805118
:105980008448FAF70AFC142102A8FAF706FC8249B7
:10599000B1F8B41188B2FFF771FE7F49B1F8B011C8
:1059A00088B2FFF779FE7C49B1F8AC1188B2FFF7F5
:1059B0008FFE784EA846E6E001A94046FFF790FB2F
:1059C000054605B9DBE00024D3E005EB04100168CF
:1059D0004846FAF7EDFB00287ED070A14846FAF75A
:1059E000E7FB00B10127B8F1050F4FD2DFE808F05F
:1059F000031221303F003FB16AA001683160416865
:105A00007160007A307204E069A00168316040681A
:105A100070603BE03FB169A001683160416871602E
:105A2000007A307204E068A00168316040687060FC
:105A30002CE03FB167A00168316041687160007A75
:105A4000307204E066A001683160406870601DE05B
:105A50003FB166A00168316041687160007A3072C0
:105A600004E065A001683160406870600EE03FB1FD
:105A700064A00168316041687160007A307204E0AE
:105A800063A0016831604068706000BF00BF3046AD
:105A9000FAF7A0FB06446FB105EB0410836805EB31
:105AA00004105EA10268304604F028F902A8FDF750
:105AB0007FFF51E005EB0410C06802280DD105EB13
:105AC00004104068B0F9003005EB041056A10268DC
:105AD000304604F013F93CE049E005EB0410C068DF
